{
  "_format": "hh-sol-artifact-1",
  "contractName": "ModifyVariable",
  "sourceName": "contracts/ModifyVariable.sol",
  "abi": [
    {
      "inputs": [
        {
          "internalType": "uint256",
          "name": "_x",
          "type": "uint256"
        },
        {
          "internalType": "string",
          "name": "_y",
          "type": "string"
        }
      ],
      "stateMutability": "nonpayable",
      "type": "constructor"
    },
    {
      "inputs": [
        {
          "internalType": "string",
          "name": "newString",
          "type": "string"
        }
      ],
      "name": "modifyString",
      "outputs": [],
      "stateMutability": "nonpayable",
      "type": "function"
    },
    {
      "inputs": [],
      "name": "modifyToLeet",
      "outputs": [],
      "stateMutability": "nonpayable",
      "type": "function"
    },
    {
      "inputs": [],
      "name": "x",
      "outputs": [
        {
          "internalType": "uint256",
          "name": "",
          "type": "uint256"
        }
      ],
      "stateMutability": "view",
      "type": "function"
    },
    {
      "inputs": [],
      "name": "y",
      "outputs": [
        {
          "internalType": "string",
          "name": "",
          "type": "string"
        }
      ],
      "stateMutability": "view",
      "type": "function"
    }
  ],
  "bytecode": "0x60806040523480156200001157600080fd5b506040516200089938038062000899833981810160405281019062000037919062000198565b816000819055508060019080519060200190620000569291906200005f565b50505062000386565b8280546200006d9062000291565b90600052602060002090601f016020900481019282620000915760008555620000dd565b82601f10620000ac57805160ff1916838001178555620000dd565b82800160010185558215620000dd579182015b82811115620000dc578251825591602001919060010190620000bf565b5b509050620000ec9190620000f0565b5090565b5b808211156200010b576000816000905550600101620000f1565b5090565b60006200012662000120846200021b565b620001f2565b9050828152602081018484840111156200013f57600080fd5b6200014c8482856200025b565b509392505050565b600082601f8301126200016657600080fd5b8151620001788482602086016200010f565b91505092915050565b60008151905062000192816200036c565b92915050565b60008060408385031215620001ac57600080fd5b6000620001bc8582860162000181565b925050602083015167ffffffffffffffff811115620001da57600080fd5b620001e88582860162000154565b9150509250929050565b6000620001fe62000211565b90506200020c8282620002c7565b919050565b6000604051905090565b600067ffffffffffffffff8211156200023957620002386200032c565b5b62000244826200035b565b9050602081019050919050565b6000819050919050565b60005b838110156200027b5780820151818401526020810190506200025e565b838111156200028b576000848401525b50505050565b60006002820490506001821680620002aa57607f821691505b60208210811415620002c157620002c0620002fd565b5b50919050565b620002d2826200035b565b810181811067ffffffffffffffff82111715620002f457620002f36200032c565b5b80604052505050565b7f4e487b7100000000000000000000000000000000000000000000000000000000600052602260045260246000fd5b7f4e487b7100000000000000000000000000000000000000000000000000000000600052604160045260246000fd5b6000601f19601f8301169050919050565b620003778162000251565b81146200038357600080fd5b50565b61050380620003966000396000f3fe608060405234801561001057600080fd5b506004361061004c5760003560e01c80630c55699c14610051578063a56dfe4a1461006f578063e16406221461008d578063f9716dc814610097575b600080fd5b6100596100b3565b6040516100669190610322565b60405180910390f35b6100776100b9565b6040516100849190610300565b60405180910390f35b610095610147565b005b6100b160048036038101906100ac9190610277565b610152565b005b60005481565b600180546100c6906103fb565b80601f01602080910402602001604051908101604052809291908181526020018280546100f2906103fb565b801561013f5780601f106101145761010080835404028352916020019161013f565b820191906000526020600020905b81548152906001019060200180831161012257829003601f168201915b505050505081565b610539600081905550565b806001908051906020019061016892919061016c565b5050565b828054610178906103fb565b90600052602060002090601f01602090048101928261019a57600085556101e1565b82601f106101b357805160ff19168380011785556101e1565b828001600101855582156101e1579182015b828111156101e05782518255916020019190600101906101c5565b5b5090506101ee91906101f2565b5090565b5b8082111561020b5760008160009055506001016101f3565b5090565b600061022261021d84610362565b61033d565b90508281526020810184848401111561023a57600080fd5b6102458482856103b9565b509392505050565b600082601f83011261025e57600080fd5b813561026e84826020860161020f565b91505092915050565b60006020828403121561028957600080fd5b600082013567ffffffffffffffff8111156102a357600080fd5b6102af8482850161024d565b91505092915050565b60006102c382610393565b6102cd818561039e565b93506102dd8185602086016103c8565b6102e6816104bc565b840191505092915050565b6102fa816103af565b82525050565b6000602082019050818103600083015261031a81846102b8565b905092915050565b600060208201905061033760008301846102f1565b92915050565b6000610347610358565b9050610353828261042d565b919050565b6000604051905090565b600067ffffffffffffffff82111561037d5761037c61048d565b5b610386826104bc565b9050602081019050919050565b600081519050919050565b600082825260208201905092915050565b6000819050919050565b82818337600083830152505050565b60005b838110156103e65780820151818401526020810190506103cb565b838111156103f5576000848401525b50505050565b6000600282049050600182168061041357607f821691505b602082108114156104275761042661045e565b5b50919050565b610436826104bc565b810181811067ffffffffffffffff821117156104555761045461048d565b5b80604052505050565b7f4e487b7100000000000000000000000000000000000000000000000000000000600052602260045260246000fd5b7f4e487b7100000000000000000000000000000000000000000000000000000000600052604160045260246000fd5b6000601f19601f830116905091905056fea26469706673582212201cd435423ad5ddb0ddc8296c81d387bd2a41a0420b4c4db8db463e867e4a98c164736f6c63430008040033",
  "linkReferences": {},
  "deployedLinkReferences": {}
}